:020000040800F2
:10000000002800209D1200082D120008331200085D
:10001000391200083F1200084512000800000000D5
:100020000000000000000000000000004B1200086B
:100030005712000800000000631200086F12000849
:10004000E5120008E5120008E5120008E5120008B4
:10005000E5120008E5120008E5120008E5120008A4
:10006000E5120008E5120008E5120008E512000894
:10007000E5120008E5120008E5120008E512000884
:10008000E5120008E5120008E5120008E512000874
:10009000E5120008E5120008E5120008E512000864
:1000A000E5120008E5120008E5120008E512000854
:1000B0007D120008E512000800000000E5120008AB
:1000C000E51200080000000000000000E512000832
:1000D00000000000E5120008E51200080000000022
:1000E000E5120008E5120008E51200080000000013
:1000F0000000000000000000000000000000000000
:0C01000000000000000000005FF808F1A3
:10010C0010B5054C237833B9044B13B10448AFF345
:10011C0000800123237010BD0C00002000000000A3
:10012C000029000808B5034B1BB103490348AFF382
:10013C00008008BD0000000010000020002900080D
:10014C0080B582B000AFC7F804C00022012103487B
:10015C0001F0AEFB00BF0837BD4680BD000C01406E
:10016C0090B593B000AF07F158037B6201F0B6F87D
:10017C0000F058FE00F0DEFE00F090FE604801F04A
:10018C00F5FF01237B645F4B07F10C040FCB84E874
:10019C000F005D4A07F11C0392E8030083E803009B
:1001AC000123BB600F237B6008233B6032233B643D
:1001BC0064237B6319233B636423FB620A23BB62C6
:1001CC00786B00F01DFF386B00F02EFFF86A00F022
:1001DC003FFFB86A00F050FF3B469C4600F0FAFA2D
:1001EC003B469C46002000F02FFB3B469C4600F013
:1001FC00E1FD0023FB633B469C46F86B00F020FDC1
:10020C000023BB63414B1B68012B0AD13B469C4628
:10021C0000F0FAFA3B469C4600F006FB786B00F0C7
:10022C00EFFE3B4B1B68012B0FD17B6C032B01DDCD
:10023C0000237B647B6C5A1C7A643A4694461846BD
:10024C0000F002FB386B00F0EFFE324B1B68012B09
:10025C001ED13B6C01333B643B6C3B2B04DD002318
:10026C003B643B6801333B603B683B2B04DD002364
:10027C003B607B6801337B607B68172B01DD0023BF
:10028C007B603B469C4600F095FDF86A00F0E0FE72
:10029C00214B1B68012BB5D13B469C46F86B00F0FB
:1002AC00CFFCFB6B0133FB63FB6B072B22DD0023C5
:1002BC00FB63BB6B0133BB63BB6B082B05DD0123FD
:1002CC00BB633B469C4600F05AFDBB68002B02D03A
:1002DC00012B05D009E03B469C4600F02EFD0AE0C0
:1002EC003B469C4600F007FD05E03B469C4600F073
:1002FC0002FD00E000BFB86A00F0BEFE82E700BF5E
:10030C005000002018290008282900082C00002083
:10031C00340000203C0000204400002080B582B056
:10032C0000AFC7F804C000220221034801F0C0FA54
:10033C0000BF0837BD4680BD000C014080B582B0BF
:10034C0000AFC7F804C000220421034801F0B0FA42
:10035C0000BF0837BD4680BD000C014080B582B09F
:10036C0000AFC7F804C000220821034801F0A0FA2E
:10037C0000BF0837BD4680BD000C014080B582B07F
:10038C0000AFC7F804C000221021034801F090FA16
:10039C0000BF0837BD4680BD000C014080B582B05F
:1003AC0000AFC7F804C000222021034801F080FAF6
:1003BC0000BF0837BD4680BD000C014080B582B03F
:1003CC0000AFC7F804C000224021034801F070FAC6
:1003DC0000BF0837BD4680BD000C014080B582B01F
:1003EC0000AFC7F804C001220121034801F060FAF4
:1003FC0000BF0837BD4680BD000C014080B582B0FF
:10040C0000AFC7F804C001220221034801F050FAE2
:10041C0000BF0837BD4680BD000C014080B582B0DE
:10042C0000AFC7F804C001220421034801F040FAD0
:10043C0000BF0837BD4680BD000C014080B582B0BE
:10044C0000AFC7F804C001220821034801F030FABC
:10045C0000BF0837BD4680BD000C014080B582B09E
:10046C0000AFC7F804C001221021034801F020FAA4
:10047C0000BF0837BD4680BD000C014080B582B07E
:10048C0000AFC7F804C001222021034801F010FA84
:10049C0000BF0837BD4680BD000C014080B582B05E
:1004AC0000AFC7F804C001224021034801F000FA54
:1004BC0000BF0837BD4680BD000C014090B583B02D
:1004CC0000AF78606446C7F800C07B68092B00F267
:1004DC00F38001A252F823F00D050008390500083D
:1004EC006505000891050008BD050008E905000830
:1004FC0015060008410600086D060008990600085C
:10050C00A446FFF71DFEA446FFF708FFA446FFF71D
:10051C0015FFA446FFF722FFA446FFF72FFFA446C2
:10052C00FFF73CFFA446FFF7B9FFDBE0A446FFF75B
:10053C0055FFA446FFF7F2FEA446FFF7FFFEA446C4
:10054C00FFF77CFFA446FFF789FFA446FFF796FF51
:10055C00A446FFF7A3FFC5E0A446FFF7F1FDA446B0
:10056C00FFF7DCFEA446FFF759FFA446FFF7F6FEA3
:10057C00A446FFF703FFA446FFF780FFA446FFF74E
:10058C001DFFAFE0A446FFF7DBFDA446FFF7C6FE58
:10059C00A446FFF7D3FEA446FFF7E0FEA446FFF700
:1005AC005DFFA446FFF76AFFA446FFF707FF99E03B
:1005BC00A446FFF713FFA446FFF7B0FEA446FFF7CF
:1005CC00BDFEA446FFF73AFFA446FFF747FFA4463B
:1005DC00FFF7E4FEA446FFF7F1FE83E0A446FFF725
:1005EC00AFFDA446FFF70AFFA446FFF7A7FEA446FB
:1005FC00FFF7B4FEA446FFF731FFA446FFF7CEFE8B
:10060C00A446FFF7DBFE6DE0A446FFF799FDA44678
:10061C00FFF7F4FEA446FFF791FEA446FFF79EFEFB
:10062C00A446FFF7ABFEA446FFF7B8FEA446FFF7BF
:10063C00C5FE57E0A446FFF783FDA446FFF76EFE08
:10064C00A446FFF77BFEA446FFF7F8FEA446FFF78F
:10065C0005FFA446FFF712FFA446FFF71FFF41E07A
:10066C00A446FFF76DFDA446FFF758FEA446FFF71E
:10067C0065FEA446FFF772FEA446FFF77FFEA44674
:10068C00FFF78CFEA446FFF799FE2BE0A446FFF77C
:10069C0057FDA446FFF742FEA446FFF74FFEA446C3
:1006AC00FFF75CFEA446FFF7D9FEA446FFF776FEE3
:1006BC00A446FFF783FE15E0A446FFF741FDA446D0
:1006CC00FFF72CFEA446FFF739FEA446FFF746FEC3
:1006DC00A446FFF753FEA446FFF760FEA446FFF7BF
:1006EC00DDFE00BF00BF0C37BD4690BD80B582B0AB
:1006FC0000AF7860C7F800C07B68032B24D801A238
:10070C0052F823F0210700082D07000839070008CC
:10071C004707000800224021104801F0C9F819E0F1
:10072C00002280210D4801F0C3F813E000224FF4A1
:10073C0080710A4801F0BCF80CE000224FF4007103
:10074C00064801F0B5F805E000224021034801F00D
:10075C00AFF800BF00BF0837BD4680BD00080140A0
:10076C0080B582B000AF7860C7F800C07B68032BFF
:10077C0024D801A252F823F095070008A10700081D
:10078C00AD070008BB07000801224021104801F00A
:10079C008FF819E0012280210D4801F089F813E04F
:1007AC0001224FF480710A4801F082F80CE001221A
:1007BC004FF40071064801F07BF805E0012240215E
:1007CC00034801F075F800BF00BF0837BD4680BD77
:1007DC000008014090B583B000AF6446C7F804C070
:1007EC00A4460020FFF7BCFFA4460120FFF7B8FF8A
:1007FC00A4460220FFF7B4FFA4460320FFF7B0FF86
:10080C0000BF0C37BD4690BD80B582B000AFC7F8B5
:10081C0004C02021034801F063F800BF0837BD462F
:10082C0080BD00BF0008014080B582B000AFC7F8A2
:10083C0004C01021034801F053F800BF0837BD462F
:10084C0080BD00BF0008014090B583B000AF786058
:10085C006446C7F800C07B68032B2FD801A252F85E
:10086C0023F000BF8108000893080008A5080008C1
:10087C00B7080008A446FFF7ADFFE368A446184686
:10088C00FFF71CFE23E0A446FFF7A4FF2369A44650
:10089C001846FFF713FE1AE0A446FFF79BFF6369A7
:1008AC00A4461846FFF70AFE11E0A446FFF792FF94
:1008BC00A369A4461846FFF701FE08E0A446FFF71B
:1008CC0089FFE368A4461846FFF7F8FD00BFA4466D
:1008DC007868FFF70BFF00BF0C37BD4690BD00BF1B
:1008EC0080B582B000AF7860C7F800C07B68072B7A
:1008FC0048D801A252F823F0250900083109000854
:10090C003D0900084B09000859090008670900084F
:10091C007509000883090008002204211E4800F014
:10092C00C7FF35E0002208211B4800F0C1FF2FE073
:10093C0000224FF48061184800F0BAFF28E0002232
:10094C004FF40061144800F0B3FF21E000224FF493
:10095C008051114800F0ACFF1AE000224FF4005116
:10096C000D4800F0A5FF13E000224FF480410A4827
:10097C0000F09EFF0CE000224FF40041064800F00E
:10098C0097FF05E000220421034800F091FF00BF0F
:10099C0000BF0837BD4680BD0008014080B582B05D
:1009AC0000AF7860C7F800C07B68072B48D801A25D
:1009BC0052F823F0E1090008ED090008F9090008D4
:1009CC00070A0008150A0008230A0008310A000863
:1009DC003F0A0008012204211E4800F069FF35E09F
:1009EC00012208211B4800F063FF2FE001224FF485
:1009FC008061184800F05CFF28E001224FF4006190
:100A0C00144800F055FF21E001224FF480511148A9
:100A1C0000F04EFF1AE001224FF400510D4800F097
:100A2C0047FF13E001224FF480410A4800F040FFD9
:100A3C000CE001224FF40041064800F039FF05E0BC
:100A4C0001220421034800F033FF00BF00BF083728
:100A5C00BD4680BD0008014080B582B000AF786013
:100A6C00C7F800C07B68072B4AD801A252F823F0C4
:100A7C009D0A0008AB0A0008B90A0008C70A00085A
:100A8C00D50A0008E30A0008F10A0008FF0A00086A
:100A9C0000224FF48071204800F00AFF37E000225A
:100AAC004FF400711C4800F003FF30E000224FF4BB
:100ABC008061194800F0FCFE29E000224FF400612F
:100ACC00154800F0F5FE22E000224FF48051124848
:100ADC0000F0EEFE1BE000224FF400510E4800F037
:100AEC00E7FE14E000224FF480410B4800F0E0FEDA
:100AFC000DE000224FF40041074800F0D9FE06E05B
:100B0C0000224FF48071044800F0D2FE00BF00BFF9
:100B1C000837BD4680BD00BF000C014080B582B0D7
:100B2C0000AF7860C7F800C07B68072B4AD801A2D9
:100B3C0052F823F0610B00086F0B00087D0B0008C6
:100B4C008B0B0008990B0008A70B0008B50B0008CD
:100B5C00C30B000801224FF48071204800F0A8FE5E
:100B6C0037E001224FF400711C4800F0A1FE30E088
:100B7C0001224FF48061194800F09AFE29E001220D
:100B8C004FF40061154800F093FE22E001224FF46F
:100B9C008051124800F08CFE1BE001224FF40051F2
:100BAC000E4800F085FE14E001224FF480410B4802
:100BBC0000F07EFE0DE001224FF40041074800F0EA
:100BCC0077FE06E001224FF48071044800F070FEBD
:100BDC0000BF00BF0837BD4680BD00BF000C014000
:100BEC0090B585B000AF6446C7F804C00023FB6025
:100BFC0006E0A446F868FFF72FFFFB680133FB60A3
:100C0C00FB68072BF5DD00BF00BF1437BD4690BD58
:100C1C0090B585B000AF6446C7F804C00023FB60F4
:100C2C0006E0A446F868FFF75BFEFB680133FB6047
:100C3C00FB68072BF5DD00BF00BF1437BD4690BD28
:100C4C0090B585B000AF78606446C7F800C0A44684
:100C5C00FFF7C6FFA446FFF7DBFFA4467868FFF753
:100C6C009DFE0023FB6012E07B6823441C331B7841
:100C7C0019468022FB6842FA03F30B40002B03D089
:100C8C00A446F868FFF74AFFFB680133FB60FB687A
:100C9C00072BE9DD00BF00BF1437BD4690BD80B403
:100CAC0083B000AF0346FB71C7F800C0FB795B084B
:100CBC00DBB25AB2FB79DB015BB213435BB2DBB242
:100CCC0018460C37BD4680BC704780B483B000AF6B
:100CDC000346FB71C7F800C0FB795B005AB2FB7985
:100CEC00DB09DBB25BB213435BB2DBB218460C37E9
:100CFC00BD4680BC704790B585B000AF6446C7F860
:100D0C0004C00023FB6010E0FB6823441C331B78F9
:100D1C00A4461846FFF7D9FF03461A46FB6823443E
:100D2C001C331A70FB680133FB60FB68072BEBDD8F
:100D3C0000BF00BF1437BD4690BD90B585B000AF65
:100D4C006446C7F804C00023FB6010E0FB68234432
:100D5C001C331B78A4461846FFF7A1FF03461A461E
:100D6C00FB6823441C331A70FB680133FB60FB687F
:100D7C00072BEBDD00BF00BF1437BD4690BD80B420
:100D8C0083B000AF6346C7F804C09A68002A02D04B
:100D9C00012A03D005E001229A6005E000229A6046
:100DAC0002E001229A6000BF00BF0C37BD4680BC38
:100DBC007047000080B483B000AF6346C7F804C02E
:100DCC005A68174981FB02018910D2178A1ADA6016
:100DDC005868134A82FB00129110C217891A0A46EE
:100DEC0092000A445200811A19611A680C4981FB5D
:100DFC0002018910D2178A1A5A611868084A82FBB4
:100E0C0000129110C217891A0A4692000A44520025
:100E1C00811A996100BF0C37BD4680BC704700BF7A
:100E2C006766666680B590B000AF07F1180328229C
:100E3C000021184601F056FD3B1D00221A605A6035
:100E4C009A60DA601A610223BB610123BB62102332
:100E5C00FB6200237B6307F11803184600F05AFD70
:100E6C000346002B01D000F0C5F80F237B60002354
:100E7C00BB600023FB6000233B6100237B613B1DB7
:100E8C000021184600F0C6FF0346002B01D000F0ED
:100E9C00B1F800BF4037BD4680BD000080B586B0BC
:100EAC0000AF07F1080300221A605A609A60DA60FA
:100EBC003B4600221A605A601D4B4FF080421A606C
:100ECC001B4B41F63F725A60194B00229A60184B2B
:100EDC000922DA60164B00221A61154B00229A6126
:100EEC00134801F0F3F80346002B01D000F082F810
:100EFC004FF48053BB6007F1080319460C4801F00E
:100F0C0089FA0346002B01D000F074F800233B60F3
:100F1C0000237B603B461946054801F055FC03460F
:100F2C00002B01D000F066F800BF1837BD4680BD1D
:100F3C005000002080B586B000AF07F108030022F6
:100F4C001A605A609A60DA60224B9B69214A43F01E
:100F5C00040393611F4B9B6903F004037B607B6864
:100F6C001C4B9B691B4A43F008039361194B9B690B
:100F7C0003F008033B603B6800224FF6FC711648F7
:100F8C0000F096FC00224FF67F71144800F090FCA4
:100F9C004FF6FC73BB600123FB6000233B61022313
:100FAC007B6107F1080319460B4800F007FB4FF66D
:100FBC007F73BB600123FB6000233B6102237B61D9
:100FCC0007F108031946054800F0F8FA00BF183776
:100FDC00BD4680BD0010024000080140000C0140DD
:100FEC0080B582B000AF786000F05AF800BF0837C7
:100FFC00BD4680BD80B400AF72B600BFFEE70000F6
:10100C0080B483B000AF7860054A7B681360054BF1
:10101C0000221A6000BF0C37BD4680BC704700BF71
:10102C00280000202C00002080B483B000AF786032
:10103C00054A7B681360054B00221A6000BF0C3711
:10104C00BD4680BC704700BF30000020340000203B
:10105C0080B483B000AF7860054A7B681360054BA1
:10106C0000221A6000BF0C37BD4680BC704700BF21
:10107C00380000203C00002080B483B000AF7860C2
:10108C00054A7B681360054B00221A6000BF0C37C1
:10109C00BD4680BC704700BF4000002044000020CB
:1010AC0080B400AF294B1B68002B0BDD274B1B6852
:1010BC00013B264A1360254B1B68002B02DC244B9A
:1010CC0001221A60234B1B68002B0BDD214B1B6884
:1010DC00013B204A13601F4B1B68002B02DC1E4B8C
:1010EC0001221A601D4B1B68002B0BDD1B4B1B6870
:1010FC00013B1A4A1360194B1B68002B02DC184B7E
:10110C0001221A60174B1B68002B0BDD154B1B685B
:10111C00013B144A1360134B1B68002B02DC124B6F
:10112C0001221A60114B1B68002B0BDD0F4B1B6847
:10113C00013B0E4A13600D4B1B68002B02DC0C4B61
:10114C0001221A6000BFBD4680BC704728000020F9
:10115C002C0000203000002034000020380000203B
:10116C003C000020400000204400002048000020EB
:10117C004C00002080B485B000AF154B9B69144A1D
:10118C0043F001039361124B9B6903F00103BB60B5
:10119C00BB680F4BDB690E4A43F08053D3610C4B99
:1011AC00DB6903F080537B607B680A4B5B68FB60F8
:1011BC00FB6823F0E063FB60FB6843F08063FB603B
:1011CC00044AFB68536000BF1437BD4680BC7047AF
:1011DC00001002400000014080B584B000AF786080
:1011EC007B681B68B3F1804F13D10C4BDB690B4A46
:1011FC0043F00103D361094BDB6903F00103FB608E
:10120C00FB68002200211C2000F0A1F91C2000F03A
:10121C00BAF900BF1037BD4680BD00BF00100240B8
:10122C0080B400AFFEE780B400AFFEE780B400AF3F
:10123C00FEE780B400AFFEE780B400AFFEE780B4F9
:10124C0000AF00BFBD4680BC704780B400AF00BF8C
:10125C00BD4680BC704780B400AF00BFBD4680BCAB
:10126C00704780B500AF00F07FF800BF80BD000074
:10127C0080B500AF024800F0C5FF00BF80BD00BFC5
:10128C005000002080B400AF00BFBD4680BC70474A
:10129C00FFF7F8FF0B480C490C4A002302E0D45826
:1012AC00C4500433C4188C42F9D3094A094C0023A6
:1012BC0001E013600432A242FBD301F0EFFAFEF717
:1012CC004FFF7047000000200C0000205C29000834
:1012DC000C0000209C000020FEE7000080B500AF51
:1012EC00084B1B68074A43F010031360032000F0FF
:1012FC0023F90F2000F008F8FFF73CFF00231846F5
:10130C0080BD00BF0020024080B582B000AF786085
:10131C00124B1A68124B1B7819464FF47A73B3FBB5
:10132C00F1F3B2FBF3F3184600F03BF90346002B44
:10133C0001D001230EE07B680F2B0AD800227968BC
:10134C004FF0FF3000F003F9064A7B68136000236E
:10135C0000E0012318460837BD4680BD0000002080
:10136C00080000200400002080B400AF054B1B785F
:10137C001A46054B1B681344034A136000BFBD4655
:10138C0080BC7047080000209800002080B400AF9B
:10139C00024B1B681846BD4680BC70479800002065
:1013AC0080B485B000AF78607B6803F00703FB6006
:1013BC000C4BDB68BB60BA684FF6FF031340BB6095
:1013CC00FB681A02BB68134343F0BF6343F400335A
:1013DC00BB60044ABB68D36000BF1437BD4680BCF9
:1013EC00704700BF00ED00E080B400AF044BDB6839
:1013FC001B0A03F007031846BD4680BC704700BFAC
:10140C0000ED00E080B483B000AF0346FB7197F9A8
:10141C000730002B0BDBFB7903F01F02064997F911
:10142C0007305B09012000FA02F241F8232000BFCB
:10143C000C37BD4680BC704700E100E080B483B03F
:10144C0000AF03463960FB7197F90730002B0ADBBC
:10145C003B68DAB20C4997F907301201D2B20B444F
:10146C0083F800230AE03B68DAB20849FB7903F001
:10147C000F03043B1201D2B20B441A7600BF0C3797
:10148C00BD4680BC704700BF00E100E000ED00E00D
:10149C0080B489B000AFF860B9607A60FB6803F083
:1014AC000703FB61FB69C3F10703042B28BF04236B
:1014BC00BB61FB690433062B02D9FB69033B00E0DB
:1014CC0000237B614FF0FF32BB6902FA03F3DA436E
:1014DC00BB681A407B699A404FF0FF317B6901FA77
:1014EC0003F3D9437B680B40134318462437BD469E
:1014FC0080BC704780B582B000AF78607B68013BE0
:10150C00B3F1807F01D301230FE00A4A7B68013BD2
:10151C0053600F214FF0FF30FFF790FF054B002277
:10152C009A60044B07221A60002318460837BD4600
:10153C0080BD00BF10E000E080B582B000AF7860E5
:10154C007868FFF72DFF00BF0837BD4680BD80B51A
:10155C0086B000AF0346B9607A60FB7300237B61F1
:10156C00FFF742FF78617A68B9687869FFF790FFF6
:10157C00024697F90F3011461846FFF75FFF00BF80
:10158C001837BD4680BD80B582B000AF0346FB71F5
:10159C0097F907301846FFF735FF00BF0837BD46EF
:1015AC0080BD80B582B000AF78607868FFF7A2FF8D
:1015BC00034618460837BD4680BD000080B48BB08A
:1015CC0000AF7860396000237B6200233B6248E106
:1015DC0001227B6A02FA03F3FB613B681B68FA6920
:1015EC001340BB61BA69FB699A4240F037813B6892
:1015FC005B68A34A93425ED0A14A934275D8A14A34
:10160C00934258D09F4A93426FD89F4A934252D0EC
:10161C009D4A934269D89D4A93424CD09B4A93422F
:10162C0063D89B4A934246D0994A93425DD8122B79
:10163C002AD8122B59D801A252F823F0C31600084D
:10164C009D160008AF160008F1160008F7160008E2
:10165C00F7160008F7160008F7160008F71600082A
:10166C00F7160008F7160008F7160008F71600081A
:10167C00F7160008F7160008F7160008F71600080A
:10168C00A5160008B9160008824A934213D02CE024
:10169C003B68DB683B6229E03B68DB6804333B62F8
:1016AC0024E03B68DB6808333B621FE03B68DB6887
:1016BC000C333B621AE03B689B68002B02D104237D
:1016CC003B6213E03B689B68012B05D108233B620E
:1016DC007B68FA691A6109E008233B627B68FA6946
:1016EC005A6103E000233B6200E000BFBB69FF2BA3
:1016FC0001D87B6801E07B6804337B61BB69FF2BFD
:10170C0002D87B6A9B0002E07B6A083B9B003B6132
:10171C007B691A680F213B6901FA03F3DB431A401A
:10172C00396A3B6901FA03F31A437B691A603B6817
:10173C005B6803F08053002B00F09080564B9B6944
:10174C00554A43F001039361534B9B6903F001032A
:10175C00BB60BB68514A7B6A9B08023352F823304A
:10176C00FB607B6A03F003039B000F2202FA03F376
:10177C00DB43FA681340FB607B68494A93420DD007
:10178C007B68484A934207D07B68474A934201D111
:10179C00022304E0032302E0012300E000237A6A21
:1017AC0002F0030292009340FA681343FB603B493A
:1017BC007B6A9B080233FA6841F823203B685B681C
:1017CC0003F48013002B06D0384B9A683749BB6959
:1017DC0013438B6006E0354B9A68BB69DB43334996
:1017EC0013408B603B685B6803F40013002B06D03E
:1017FC002E4BDA682D49BB691343CB6006E02B4BAB
:10180C00DA68BB69DB4329491340CB603B685B68F2
:10181C0003F40033002B06D0244B5A682349BB69D0
:10182C0013434B6006E0214B5A68BB69DB431F49ED
:10183C0013404B603B685B6803F48033002B06D08D
:10184C001A4B1A681949BB6913430B6006E0174B16
:10185C001A68BB69DB43154913400B607B6A013383
:10186C007B623B681A687B6A22FA03F3002B7FF4D5
:10187C00AFAE00BF00BF2C37BD4680BC704700BF69
:10188C000000321000003110000022100000211066
:10189C000000121000001110001002400000014066
:1018AC0000080140000C0140001001400004014000
:1018BC0080B483B000AF78600B467B8013467B709E
:1018CC007B78002B03D07A887B681A6103E07B88D5
:1018DC001A047B681A6100BF0C37BD4680BC704788
:1018EC0080B485B000AF78600B467B807B68DB688A
:1018FC00FB607A88FB6813401A04FB68D9437B8829
:10190C000B401A437B681A6100BF1437BD4680BC7C
:10191C007047000080B586B000AF78607B68002B04
:10192C0001D101236CE27B681B6803F00103002BDF
:10193C0000F08780924B5B6803F00C03042B0CD0F7
:10194C008F4B5B6803F00C03082B12D18C4B5B683C
:10195C0003F48033B3F5803F0BD1894B1B6803F440
:10196C000033002B6CD07B685B68002B68D10123A3
:10197C0046E27B685B68B3F5803F06D1804B1B6801
:10198C007F4A43F4803313602EE07B685B68002B46
:10199C000CD17B4B1B687A4A23F480331360784B51
:1019AC001B68774A23F4802313601DE07B685B6817
:1019BC00B3F5A02F0CD1724B1B68714A43F48023F2
:1019CC0013606F4B1B686E4A43F4803313600BE05B
:1019DC006B4B1B686A4A23F480331360684B1B689B
:1019EC00674A23F4802313607B685B68002B13D059
:1019FC00FFF7CCFC386108E0FFF7C8FC02463B69F6
:101A0C00D31A642B01D90323FAE15D4B1B6803F451
:101A1C000033002BF0D014E0FFF7B8FC386108E07D
:101A2C00FFF7B4FC02463B69D31A642B01D903239C
:101A3C00E6E1534B1B6803F40033002BF0D100E0BC
:101A4C0000BF7B681B6803F00203002B63D04C4B78
:101A5C005B6803F00C03002B0BD0494B5B6803F065
:101A6C000C03082B1CD1464B5B6803F48033002B12
:101A7C0016D1434B1B6803F00203002B05D07B6887
:101A8C001B69012B01D00123BAE13D4B1B6823F0EC
:101A9C00F8027B685B69DB00394913430B603AE061
:101AAC007B681B69002B20D0364B01221A60FFF794
:101ABC006DFC386108E0FFF769FC02463B69D31AFC
:101ACC00022B01D903239BE12D4B1B6803F002036E
:101ADC00002BF0D02A4B1B6823F0F8027B685B6963
:101AEC00DB00274913430B6015E0264B00221A60DC
:101AFC00FFF74CFC386108E0FFF748FC02463B69F5
:101B0C00D31A022B01D903237AE11D4B1B6803F076
:101B1C000203002BF0D17B681B6803F00803002B39
:101B2C003AD07B689B69002B19D0174B01221A60A5
:101B3C00FFF72CFC386108E0FFF728FC02463B69F4
:101B4C00D31A022B01D903235AE10D4B5B6A03F024
:101B5C000203002BF0D0012000F09AFA1CE00A4B93
:101B6C0000221A60FFF712FC38610FE0FFF70EFC41
:101B7C0002463B69D31A022B08D9032340E100BF6C
:101B8C000010024000004242800442429E4B5B6ABD
:101B9C0003F00203002BE9D17B681B6803F00403FC
:101BAC00002B00F0A6800023FB75974BDB6903F03C
:101BBC008053002B0DD1944BDB69934A43F0805337
:101BCC00D361914BDB6903F08053BB60BB6801238D
:101BDC00FB758E4B1B6803F48073002B18D18B4B59
:101BEC001B688A4A43F480731360FFF7CFFB38619C
:101BFC0008E0FFF7CBFB02463B69D31A642B01D9F3
:101C0C000323FDE0814B1B6803F48073002BF0D0A1
:101C1C007B68DB68012B06D17B4B1B6A7A4A43F04D
:101C2C00010313622DE07B68DB68002B0CD1764B33
:101C3C001B6A754A23F001031362734B1B6A724AC9
:101C4C0023F0040313621CE07B68DB68052B0CD1CA
:101C5C006D4B1B6A6C4A43F0040313626A4B1B6A9C
:101C6C00694A43F0010313620BE0674B1B6A664A37
:101C7C0023F001031362644B1B6A634A23F00403D1
:101C8C0013627B68DB68002B15D0FFF77FFB386194
:101C9C000AE0FFF77BFB02463B69D31A41F288321C
:101CAC00934201D90323ABE0574B1B6A03F00203A9
:101CBC00002BEED014E0FFF769FB38610AE0FFF768
:101CCC0065FB02463B69D31A41F28832934201D933
:101CDC00032395E04C4B1B6A03F00203002BEED15F
:101CEC00FB7D012B05D1484BDB69474A23F0805320
:101CFC00D3617B68DB69002B00F08180424B5B6811
:101D0C0003F00C03082B61D07B68DB69022B46D1F6
:101D1C003F4B00221A60FFF739FB386108E0FFF7F0
:101D2C0035FB02463B69D31A022B01D9032367E02A
:101D3C00354B1B6803F00073002BF0D17B681B6ADA
:101D4C00B3F5803F08D1304B5B6823F400327B68DD
:101D5C009B682D4913434B602B4B5B6823F4741227
:101D6C007B68196A7B685B6A0B43274913434B609A
:101D7C00274B01221A60FFF709FB386108E0FFF7D7
:101D8C0005FB02463B69D31A022B01D9032337E02A
:101D9C001D4B1B6803F00073002BF0D02FE01C4B85
:101DAC0000221A60FFF7F2FA386108E0FFF7EEFA4A
:101DBC0002463B69D31A022B01D9032320E0124BB4
:101DCC001B6803F00073002BF0D118E07B68DB6913
:101DDC00012B01D1012313E00B4B5B68FB60FB680B
:101DEC0003F480327B681B6A9A4206D1FB6803F4C9
:101DFC0070127B685B6A9A4201D0012300E00023D9
:101E0C0018461837BD4680BD0010024000700040D7
:101E1C006000424280B584B000AF786039607B6866
:101E2C00002B01D10123D0E06A4B1B6803F00703A0
:101E3C003A689A4210D9674B1B6823F00702654930
:101E4C003B6813430B60634B1B6803F007033A6852
:101E5C009A4201D00123B8E07B681B6803F00203AF
:101E6C00002B20D07B681B6803F00403002B05D0EB
:101E7C00594B5B68584A43F4E06353607B681B68BA
:101E8C0003F00803002B05D0534B5B68524A43F414
:101E9C0060535360504B5B6823F0F0027B689B6887
:101EAC004D4913434B607B681B6803F00103002B07
:101EBC0040D07B685B68012B07D1474B1B6803F450
:101ECC000033002B15D101237FE07B685B68022B6C
:101EDC0007D1414B1B6803F00073002B09D1012380
:101EEC0073E03D4B1B6803F00203002B01D101236F
:101EFC006BE0394B5B6823F003027B685B68364907
:101F0C0013434B60FFF742FAF8600AE0FFF73EFA22
:101F1C000246FB68D31A41F28832934201D903235B
:101F2C0053E02D4B5B6803F00C027B685B689B00F5
:101F3C009A42EBD1274B1B6803F007033A689A428D
:101F4C0010D2244B1B6823F0070222493B68134331
:101F5C000B60204B1B6803F007033A689A4201D0D0
:101F6C00012332E07B681B6803F00403002B08D0CC
:101F7C00194B5B6823F4E0627B68DB6816491343FA
:101F8C004B607B681B6803F00803002B09D0124BD5
:101F9C005B6823F460527B681B69DB000E491343BA
:101FAC004B6000F021F802460B4B5B681B0903F0F9
:101FBC000F030A49CB5C22FA03F3094A1360094B5D
:101FCC001B681846FFF7A0F9002318461037BD46CA
:101FDC0080BD00BF002002400010024030290008E4
:101FEC00000000200400002080B487B000AF002364
:101FFC00FB600023BB6000237B6100237B6000231C
:10200C003B611E4B5B68FB60FB6803F00C03042B0D
:10201C0002D0082B03D027E0194B3B6127E0FB686B
:10202C009B0C03F00F03174AD35C7B60FB6803F433
:10203C008033002B10D0114B5B685B0C03F0010359
:10204C00114AD35CBB607B680D4A02FB03F2BB6890
:10205C00B2FBF3F37B6104E07B680C4A02FB03F3F5
:10206C007B617B693B6102E0054B3B6100BF3B69D7
:10207C0018461C37BD4680BC704700BF001002409C
:10208C0000127A00402900085029000800093D0080
:10209C0080B485B000AF78600A4B1B680A4AA2FB7B
:1020AC0003235B0A7A6802FB03F3FB6000BFFB6847
:1020BC005A1EFA60002BF9D100BF00BF1437BD4681
:1020CC0080BC704700000020D34D621080B582B0F8
:1020DC0000AF78607B68002B01D1012341E07B6865
:1020EC0093F83D30DBB2002B06D17B68002283F8DD
:1020FC003C207868FFF770F87B68022283F83D205B
:10210C007B681A687B6804331946104600F06EFA37
:10211C007B68012283F846207B68012283F83E20ED
:10212C007B68012283F83F207B68012283F84020E2
:10213C007B68012283F841207B68012283F84220CE
:10214C007B68012283F843207B68012283F84420BA
:10215C007B68012283F845207B68012283F83D20AF
:10216C00002318460837BD4680BD000080B485B0FA
:10217C0000AF78607B6893F83D30DBB2012B01D067
:10218C00012335E07B68022283F83D207B681B68C5
:10219C00DA687B681B6842F00102DA607B681B68B6
:1021AC00164A934209D07B681B68B3F1804F04D068
:1021BC007B681B68124A934211D17B681B689B6831
:1021CC0003F00703FB60FB68062B10D07B681B68D1
:1021DC001A687B681B6842F001021A6007E07B6892
:1021EC001B681A687B681B6842F001021A600023A6
:1021FC0018461437BD4680BC704700BF002C014008
:10220C000004004080B582B000AF78607B681B682A
:10221C001B6903F00203022B22D17B681B68DB686D
:10222C0003F00203022B1BD17B681B686FF00202C8
:10223C001A617B6801221A777B681B689B6903F023
:10224C000303002B03D0786800F0B4F905E078683C
:10225C0000F0A7F9786800F0B6F97B6800221A77CD
:10226C007B681B681B6903F00403042B22D17B6879
:10227C001B68DB6803F00403042B1BD17B681B6811
:10228C006FF004021A617B6802221A777B681B6864
:10229C009B6903F44073002B03D0786800F08AF933
:1022AC0005E0786800F07DF9786800F08CF97B68BF
:1022BC0000221A777B681B681B6903F00803082B44
:1022CC0022D17B681B68DB6803F00803082B1BD149
:1022DC007B681B686FF008021A617B6804221A770E
:1022EC007B681B68DB6903F00303002B03D0786861
:1022FC0000F060F905E0786800F053F9786800F0B8
:10230C0062F97B6800221A777B681B681B6903F0F3
:10231C001003102B22D17B681B68DB6803F01003C1
:10232C00102B1BD17B681B686FF010021A617B6845
:10233C0008221A777B681B68DB6903F44073002B57
:10234C0003D0786800F036F905E0786800F029F9D8
:10235C00786800F038F97B6800221A777B681B6874
:10236C001B6903F00103012B0ED17B681B68DB6832
:10237C0003F00103012B07D17B681B686FF001028E
:10238C001A617868FEF72CFE7B681B681B6903F0EA
:10239C008003802B0ED17B681B68DB6803F0800305
:1023AC00802B07D17B681B686FF080021A617868FC
:1023BC0000F06BFA7B681B681B6903F04003402B31
:1023CC000ED17B681B68DB6803F04003402B07D100
:1023DC007B681B686FF040021A61786800F0FCF8AB
:1023EC007B681B681B6903F02003202B0ED17B68D4
:1023FC001B68DB6803F02003202B07D17B681B686C
:10240C006FF020021A61786800F036FA00BF0837C6
:10241C00BD4680BD80B584B000AF786039600023C4
:10242C00FB737B6893F83C30012B01D10223B4E0A1
:10243C007B68012283F83C207B68022283F83D20D4
:10244C007B681B689B68BB60BB6823F07703BB6031
:10245C00BB6823F47F43BB607B681B68BA689A60D7
:10246C003B681B68B3F5005F3ED0B3F5005F00F22C
:10247C008780B3F5805F00F08680B3F5805F7FD8EE
:10248C00702B1AD0702B7BD8602B50D0602B77D848
:10249C00502B3CD0502B73D8402B58D0402B6FD89E
:1024AC00302B64D0302B6BD8202B60D0202B67D8EE
:1024BC00002B5CD0102B5AD062E07B6818683B680C
:1024CC0099683B685A683B68DB6800F05EF97B688A
:1024DC001B689B68BB60BB6843F07703BB607B6881
:1024EC001B68BA689A604FE07B6818683B6899680B
:1024FC003B685A683B68DB6800F047F97B681B68EF
:10250C009A687B681B6842F480429A603CE07B6866
:10251C0018683B6859683B68DB681A4600F0BEF8DF
:10252C007B681B685021184600F015F92CE07B687D
:10253C0018683B6859683B68DB681A4600F0DCF8A1
:10254C007B681B686021184600F005F91CE07B686D
:10255C0018683B6859683B68DB681A4600F09EF8BF
:10256C007B681B684021184600F0F5F80CE07B688E
:10257C001A683B681B681946104600F0ECF803E03B
:10258C000123FB7300E000BF7B68012283F83D2030
:10259C007B68002283F83C20FB7B18461037BD4635
:1025AC0080BD80B483B000AF786000BF0C37BD46EF
:1025BC0080BC704780B483B000AF786000BF0C372C
:1025CC00BD4680BC704780B483B000AF786000BF5C
:1025DC000C37BD4680BC704780B483B000AF7860C8
:1025EC0000BF0C37BD4680BC7047000080B485B07E
:1025FC0000AF786039607B681B68FB607B68254A9C
:10260C00934207D07B68B3F1804F03D07B68224A9A
:10261C00934208D1FB6823F07003FB603B685B6856
:10262C00FA681343FB607B681A4A934207D07B68B5
:10263C00B3F1804F03D07B68174A934208D1FB68F3
:10264C0023F44073FB603B68DB68FA681343FB6060
:10265C00FB6823F080023B685B691343FB607B687B
:10266C00FA681A603B689A687B68DA623B681A6899
:10267C007B689A627B68074A934203D13B681A696C
:10268C007B681A637B6801225A6100BF1437BD4610
:10269C0080BC7047002C01400004004080B487B01F
:1026AC0000AFF860B9607A60FB681B6A7B61FB68FD
:1026BC001B6A23F00102FB681A62FB689B693B6191
:1026CC003B6923F0F0033B617B681B013A691343C0
:1026DC003B617B6923F00A037B617A69BB68134316
:1026EC007B61FB683A699A61FB687A691A6200BF80
:1026FC001C37BD4680BC704780B487B000AFF86013
:10270C00B9607A60FB681B6A7B61FB681B6A23F00B
:10271C001002FB681A62FB689B693B613B6923F4FE
:10272C0070433B617B681B033A6913433B617B69D4
:10273C0023F0A0037B61BB681B017A6913437B61A7
:10274C00FB683A699A61FB687A691A6200BF1C37A8
:10275C00BD4680BC704780B485B000AF78603960EE
:10276C007B689B68FB60FB6823F07003FB603A6836
:10277C00FB68134343F00703FB607B68FA689A60BD
:10278C0000BF1437BD4680BC704780B487B000AF23
:10279C00F860B9607A603B60FB689B687B617B6921
:1027AC0023F47F437B613B681A027B681A43BB6846
:1027BC0013437A6913437B61FB687A699A6000BFA3
:1027CC001C37BD4680BC704780B485B000AF7860C4
:1027DC0039607B6893F83C30012B01D1022341E036
:1027EC007B68012283F83C207B68022283F83D2021
:1027FC007B681B685B68FB607B681B689B68BB60C5
:10280C00FB6823F07003FB603B681B68FA6813439A
:10281C00FB607B681B68FA685A607B681B68144A0B
:10282C00934209D07B681B68B3F1804F04D07B685E
:10283C001B68104A93420CD1BB6823F08003BB6029
:10284C003B685B68BA681343BB607B681B68BA68FB
:10285C009A607B68012283F83D207B68002283F814
:10286C003C20002318461437BD4680BC704700BF7F
:10287C00002C01400004004080B483B000AF7860AD
:10288C0000BF0C37BD4680BC704780B483B000AF2E
:10289C00786000BF0C37BD4680BC704770B5002611
:1028AC000C4D0D4C641BA410A64209D100F022F86B
:1028BC0000260A4D0A4C641BA410A64205D170BD1B
:1028CC0055F8043B98470136EEE755F8043B98471A
:1028DC000136F2E75429000854290008542900084D
:1028EC005829000803460244934200D1704703F86C
:1028FC00011BF9E7F8B500BFF8BC08BC9E46704751
:0C290C00F8B500BFF8BC08BC9E46704740
:1029180001000000020000000300000004000000A5
:102928003C42427E42424242000000000000000059
:10293800010203040607080902030405060708093B
:0C2948000A0B0C0D0E0F10100102000015
:042954003101000845
:042958000D01000865
:0C295C000024F400100000000100000046
:040000050800129D40
:00000001FF
